:100000000C941A3E0C944B3E0C944B3E0C944B3E7D
:100010000C944B3E0D94EE3F0C944B3E0D945C8C37
:100020000D94798C0C944B3E0C944B3E0C944B3EAF
:100030000C944F4B0C944B3E0D94A2120C94D9810E
:100040000C944B3E0D94121F0C944B3E0C944B3E63
:100050000C944B3E0C944B3E0C944B3E0D94A28B57
:100060000C944B3E0C94DE510C944B3E0C944B3E46
:100070000C944B3E0D9421920C944B3E0C944B3EB1
:100080000C944B3E0C944B3E0C944B3E0C944B3ECC
:100090000C949A510C944B3E0C944B3E0C944B3E5A
:1000A0000C944B3E0C944B3E0C9447620C944B3E8C
:1000B0000C944B3E0C9429620C944B3E0D94F41717
:1000C0000C944B3E0C944B3E0C944B3E0C94E961CB
:1000D0000C944B3E0C944B3E0C944B3E0C944B3E7C
:1000E0000C944B3E084AD73B3BCE016E84BCBFFD0F
:1000F000C12F3D6C74319ABD56833DDA3D00C77FF8
:1001000011BED9E4BB4C3E916BAAAABE0000008090
:100110003F05A84CCDB2D44EB93836A9020C50B91F
:10012000918688083CA6AAAA2ABE000000803F0744
:10013000634236B79BD8A71A39685618AEBAAB5582
:100140008C1D3CB7CC5763BD6DEDFD753EF6177247
:1001500031BF000000803F08000000BE9224491219
:100160003EABAAAA2ABECDCCCC4C3E00000080BE3D
:10017000ABAAAAAA3E00000000BF000000803F001A
:1001800000000000084178D3BB4387D1133D190E0E
:100190003CC3BD4282AD2B3E68EC8276BED98FE176
:1001A000A93E4C80EFFFBE01C4FF7F3F000000006E
:1001B00000000C94AAC80C9416CE0C947AC70D9427
:1001C000B32A0C94FCCD0D947C2B0C9478E40D9404
:1001D00081760C94EDC60D9407900C941EBD0C9482
:1001E000FB3E0C9457FA0C9423D30C9449D30D94F2
:1001F00012020D94732A0D941A2B0C947DE60D9423
:10020000172B0C9469ED0D94A2060C94DBDB0C9477
:10021000B7C50C94A2C70D94B42B0C94DEFB0D94BF
:10022000BA3E0C94E33E0D945C2B0C9405BD0D94EA
:10023000A42B0C94B1BE0D94642B0C9427CD0D947B
:10024000787C0C94B8F10C943FF20C9450FD0C9413
:1002500087C30D948C2B0D94807E0C9436C30C9424
:10026000AAC20C949AED0C94F7C60C94FDD20C948F
:1002700030C90D94C7080C940BDC0C946AC30D9420
:100280004E2B0D94167C0D94512B0D94C18B0D9417
:1002900029080C947CC30C9474FA0C9411D30D941B
:1002A00001020D94887C0C9433F20C94B1C30C942D
:1002B0002BD30C943FBD0C94B1CB0C9486E30C94DF
:1002C000F7C50C94CABD0C94C0EC0C9424BD0C94DE
:1002D00073ED0C9488CC0C9464CD0C9437F20C9490
:1002E00052BD0C94B3CC0C940AC70D94301B0D94E2
:1002F000C33E0D94DB8B0C9461DF0C9460C30C94B3
:1003000017CD0D945C7C0D9461760D94488C0C9403
:100310008AE70C9446FF0C9440C30C9489FB0D941F
:100320007E760D94138C0C94EACD0C94FDF30C9412
:10033000F8D20D947F7C0C94E4DB0C9409BD0C94F2
:1003400022C30C946EFF0C94EDDB0C94EADB0C944E
:100350008CDB0C94F0D20C94BFC20C94B6F40C94C9
:10036000A4ED0C94A0ED0C9458D30C9410FE0C94B6
:1003700018C30C942BFB0D942D000D949F080C9426
:100380000DC30C944CC30C9426D00C943BF20C94EB
:1003900023ED0C94C1C20C946CD30C9433F10C94E7
:1003A00083DB0C94B8C20C946AD90C9435D30D94A9
:1003B000B02A0C94A5FF0C94FFCA0C943ABD0C947F
:1003C00036ED0C94C8F00C9467CD0C9409D90C94BC
:1003D000F2C20C9401C70C9469EF0C947CEC0C9461
:1003E00020E00C94BED80C94E0C20D94BA2A0C9470
:1003F0006FEF0D94AE080D946CA90D94E0010D946F
:100400001D090C9401C30C947ECC0C94E3FA0C945B
:1004100056C30C94A3C20D94160F0C94C5C90D9429
:1004200059020C9407D30C9461CD0D94E68B0D9476
:100430001D2B0C9455F20D94BEBE0D94CC3E0C9425
:10044000E8C60D94542B0C9414BD0D940A8C0D9495
:10045000FD010C942FF10D94368C0C9448BD0C9436
:100460008AD30C9406C70C942CC30C943FD30C94E1
:1004700007CE0D9421060C942CC40C94A5FA0C9470
:100480005ECD0C94F8E90C942DED0C9403F30C94D0
:10049000F2C60C94FCC60D94942B0C948FE50C942E
:1004A000CDC20C9402DC0C9438C90D948D7C0C9454
:1004B00018DA0C943EC70C94E8ED0C94A7E30C9466
:1004C000F6DB0D946C080C9458CD0D94AC2B0C9469
:1004D0002CBD0D946C2B0D9406760C9441C90C9494
:1004E00040FF0C942DC60C94FFBC0C94F0CD0D94E1
:1004F000E78A0D94BD2A0C94FFDB0C9428BD0C9464
:10050000E4CD0C94A5F90D9483840C94E3C60C946B
:100510007BDF0C9432BD0C94B1C20C9436520C9417
:1005200022E80C9492FD0D947B7C0C941ABD0C94E3
:10053000B7BE0C9480D30C948DDF0C940DBD0C943D
:10054000DECD0C94E7DB0D949C2B0C949EC30D9494
:10055000742B0D948B2A0C9436BD0C94E3D60C941A
:1005600088F40C9462D30C9431C50D942B3D0C94FB
:1005700025FC0C9465DA0C9470CD0C94D8ED0C9499
:100580001BD30D94F48B0D941F760C949EDB0C946E
:1005900062FB0C94FDEC0C94CFCB0D9416080C94DC
:1005A0007DE00D94842B0D9484760C9440BD0C94C6
:1005B00018CE0C9425C40C94C2ED0D94717E0C944D
:1005C000E7E90C94AAF90C9457BD0D944B2B0D94AC
:1005D0005B070C942DF20C945BCD0C9411BD0C9424
:1005E00063FA0D94ED2A0C9444BD0C9476D30C94CC
:1005F0008BED0D94681A6E616E00696E66000040A6
:100600007A10F35A00A0724E18090010A5D4E80021
:1006100000E87648170000E40B54020000CA9A3B39
:10062000000000E1F50500008096980000004042BF
:100630000F000000A086010000001027000000004D
:10064000E803000000006400000000000A00000051
:1006500000000100000000002C76D888DC674F08FD
:1006600023DFC1DFAE59E1B1B796E5E3E453C63A03
:10067000E651997696E8E6C28426EB898C9B62ED7A
:10068000407C6FFCEFBC9C9F40F2BAA56FA5F49034
:10069000055A2AF75C936B6CF9676DC11BFCE0E4AB
:1006A0000D47FEF520E6B500D0ED902E0300943501
:1006B00077050080841E080000204E0A000000C854
:1006C0000C333333330F986E12831141EF8D2114A5
:1006D000893BE65516CFFEE6DB18D1844B381BF775
:1006E0007C1D901DA4BBE424203284725E22810014
:1006F000C9F124ECA1E53D2758595A2063616C6982
:1007000062726174696F6E20616C6C2072696768D7
:10071000742E20536B65772077696C6C206265209E
:10072000636F72726563746564206175746F6D6167
:10073000746963616C6C792E0058595A2063616C3E
:100740006962726174696F6E20616C6C2072696796
:1007500068742E20582F5920617865732061726566
:1007600020736C696768746C7920736B6577656456
:100770002E20476F6F64206A6F62210058595A20FB
:1007800063616C6962726174696F6E206F6B2E2099
:10079000582F5920617865732061726520706572E9
:1007A00070656E646963756C61722E20436F6E674D
:1007B000726174756C6174696F6E7321004372614C
:1007C00073682064657465637465642E00536F6D8F
:1007D000652070726F626C656D20656E636F756EFB
:1007E00074657265642C205A2D6C6576656C696E33
:1007F0006720656E666F72636564202E2E2E004D35
:1008000065736820626564206C6576656C696E67E7
:10081000206661696C65642E205072696E74206375
:10082000616E63656C65642E00506C656173652054
:10083000706C61636520737465656C2073686565B1
:1008400074206F6E20686561746265642E0058596B
:100850005A2063616C6962726174696F6E206661AF
:10086000696C65642E2052696768742066726F6EC9
:10087000742063616C6962726174696F6E20706F5D
:10088000696E74206E6F7420726561636861626C5A
:10089000652E0058595A2063616C696272617469EF
:1008A0006F6E206661696C65642E2046726F6E748F
:1008B0002063616C6962726174696F6E20706F6928
:1008C0006E7473206E6F7420726561636861626C10
:1008D000652E0058595A2063616C696272617469AF
:1008E0006F6E206661696C65642E20506C65617363
:1008F0006520636F6E73756C7420746865206D611C
:100900006E75616C2E0058595A2063616C69627271
:100910006174696F6E20636F6D70726F6D6973655E
:10092000642E2052696768742066726F6E7420634B
:10093000616C6962726174696F6E20706F696E7448
:10094000206E6F7420726561636861626C652E0051
:1009500058595A2063616C6962726174696F6E20C4
:10096000636F6D70726F6D697365642E2046726F70
:100970006E742063616C6962726174696F6E20705D
:100980006F696E7473206E6F742072656163686145
:10099000626C652E0058595A2063616C69627261FD
:1009A00074696F6E206661696C65642E20426564AF
:1009B0002063616C6962726174696F6E20706F6927
:1009C0006E7420776173206E6F7420666F756E642D
:1009D0002E00506C6163652061207368656574202A
:1009E0006F6620706170657220756E646572207428
:1009F0006865206E6F7A7A6C6520647572696E67BF
:100A0000207468652063616C6962726174696F6EDD
:100A1000206F66206669727374203420706F696E6F
:100A200074732E20496620746865206E6F7A7A6C24
:100A30006520636174636865732074686520706104
:100A40007065722C20706F776572206F66662074F7
:100A50006865207072696E74657220696D6D656479
:100A6000696174656C792E00536561726368696EA3
:100A700067206265642063616C6962726174696F8A
:100A80006E20706F696E7400506C656173652063D1
:100A90006C65616E20746865206E6F7A7A6C652073
:100AA000666F722063616C6962726174696F6E2E29
:100AB00020436C69636B207768656E20646F6E6598
:100AC0002E0048656174696E672064697361626CA9
:100AD0006564206279207361666574792074696D3C
:100AE00065722E0053544F505045442E00504155CE
:100AF00053454420544845524D414C204552524F95
:100B00005200472D636F646520736C6963656420D0
:100B1000666F72206120646966666572656E742016
:100B20006C6576656C2E20506C656173652072650E
:100B30002D736C69636520746865206D6F64656CE6
:100B400020616761696E2E205072696E7420636146
:100B50006E63656C6C65642E00472D636F64652061
:100B6000736C6963656420666F72206120646966D6
:100B7000666572656E74206C6576656C2E20436FB9
:100B80006E74696E75653F00472D636F64652073F1
:100B90006C6963656420666F722061206E6577659D
:100BA00072206669726D776172652E20506C656186
:100BB000736520757064617465207468652066696A
:100BC000726D776172652E205072696E7420636158
:100BD0006E63656C6C65642E00472D636F646520E1
:100BE000736C6963656420666F722061206E65773F
:100BF0006572206669726D776172652E20436F6E33
:100C000074696E75653F00472D636F646520736C72
:100C10006963656420666F72206120646966666539
:100C200072656E74207072696E746572207479706A
:100C3000652E20506C656173652072652D736C693B
:100C4000636520746865206D6F64656C2061676101
:100C5000696E2E205072696E742063616E63656CDC
:100C60006C65642E00472D636F646520736C696347
:100C7000656420666F7220612064696666657265CE
:100C80006E74207072696E74657220747970652E4E
:100C900020436F6E74696E75653F005072657373A3
:100CA00020746865206B6E6F6220746F20707265AF
:100CB00068656174206E6F7A7A6C6520616E64205D
:100CC000636F6E74696E75652E00506C6561736537
:100CD00020707265737320746865206B6E6F62207C
:100CE000746F20756E6C6F61642066696C616D65F0
:100CF0006E7400616E642070726573732074686531
:100D0000206B6E6F6200496E736572742066696C49
:100D1000616D656E7400436F6C6F72206E6F74202E
:100D2000636F72726563740046696C616D656E74A1
:100D3000206E6F74206C6F61646564004368616E3F
:100D400067656420636F72726563746C79004C6FC1
:100D50006164696E6720636F6C6F72004368616ED7
:100D6000676520737563636573732100506C6561FB
:100D70007365206F70656E2069646C657220616EAA
:100D8000642072656D6F76652066696C616D656E55
:100D900074206D616E75616C6C792E0057617320E3
:100DA00066696C616D656E7420756E6C6F61642030
:100DB0007375636365737366756C3F00506C656132
:100DC000736520757067726164652E004E657720CB
:100DD0006669726D776172652076657273696F6E90
:100DE00020617661696C61626C653A005761697473
:100DF000696E6720666F722050494E4441207072C0
:100E00006F626520636F6F6C696E6700506C65611F
:100E100073652077616974004E6F206D6F76652E63
:100E2000005761697420666F7220757365722E2E8B
:100E30002E00506C656173652072656D6F7665205C
:100E4000737465656C2073686565742066726F6D78
:100E500020686561746265642E004973207374654F
:100E6000656C207368656574206F6E2068656174B9
:100E70006265643F00537461626C6520616D6269F4
:100E8000656E742074656D7065726174757265202D
:100E900032312D323643206973206E656564656496
:100EA0002061207269676964207374616E642069CF
:100EB000732072657175697265642E00506C65618E
:100EC00073652072756E2058595A2063616C69628F
:100ED000726174696F6E2066697273742E00555367
:100EE000415254322072782046756C6C21212100C9
:100EF00053657474696E67732053746F7265640010
:100F0000544D3A2073746F7265642063616C69623A
:100F1000726174696F6E20696E76616C69642C20F1
:100F2000726573657474696E670053746F7265647B
:100F30002073657474696E67732072657472696575
:100F40007665640048617264636F6465642044651B
:100F50006661756C742053657474696E6773204C98
:100F60006F6164656400563200000000C8420000F2
:100F7000C8420000C84300008C4300004843000002
:100F80004843000040410000F042E8030000E8034D
:100F90000000C80000008813000000409C4400408E
:100FA0009C440000000000000000204E00000000F3
:100FB000204100002041CDCCCC3E000090400000FC
:100FC00000000000000000000000CDCCCC3E3D0A37
:100FD0008141FF08433EB099AB438F42FC42E65A41
:100FE000343F4C62B0450000000000404000003437
:100FF000420000000000000000000000410000006E
:10100000E03F0000C8420000C8420000404100002C
:10101000F042C0030000C0030000C80000008813B5
:1010200000001010102000409C440000803F000091
:10103000003F1914000000CDCCCC3D0AD7233C174B
:10104000B7D13877CC2B329595E6241FB14F0A00E3
:101050000020410000C84200401C4620BCBE4CCAD3
:101060001B0E5AAEC59D744E414E494E4662757375
:10107000793A2070617573656420666F7220696EBD
:1010800070757400627573793A2070617573656468
:1010900020666F72207573657200627573793A20ED
:1010A00070726F63657373696E670000007F430041
:1010B0008054430000524300000000000080C09AAA
:1010C00099193E00000000000080C09A99193E0066
:1010D00000A0400000A040000000402533642073C1
:1010E0007465703D253264206D73636E743D2534E4
:1010F000640A0000007F43008058439AD95143FF9F
:10110000FFFF20413A0020503A002042403A0020A0
:10111000403A00202F002054303A00202F00204277
:101120003A00202F00543A002553457863657373C5
:1011300069766520626564206C6576656C696E67AA
:1011400020636F7272656374696F6E3A202569203F
:101150006D6963726F6E730A00426564206C657618
:10116000656C696E67206661696C65642E20546FDA
:101170006F206D75636820766172696174696F6E46
:101180002066726F6D20656570726F6D206D65737E
:101190006800426564206C6576656C696E672066E0
:1011A00061696C65642E2053656E736F7220747272
:1011B0006967676572656420746F6F20736F6F6E07
:1011C000002020004D6561737572656420706F6941
:1011D0006E74733A005A20736561726368206865A3
:1011E000696768743A20352E3066004E756D205858
:1011F0002C593A20372C37004D657368206265649E
:10120000206C6576656C696E67206E6F7420616313
:10121000746976652E00000043616C63756C6174BF
:1012200065206F666673657420616E6420736B65FC
:10123000772072657475726E696E6720726573755A
:101240006C743A000000292C206572726F723A208B
:10125000002C2000293B207461726765743A2028B5
:10126000002C2000293B206D656173757265642D2B
:10127000636F727265637465643A2028002C2000E5
:101280006D656173757265643A202800706F696ED0
:1012900074202300446966666572656E636520612B
:1012A0006674657220636F7272656374696F6E3AFB
:1012B0002000002C200063656E7465722C20616430
:1012C0006A75737465643A2000002C2000592076FA
:1012D0006563746F722C2061646A75737465643A17
:1012E0002000002C20005820766563746F722C203B
:1012F00061646A75737465643A200000636E747289
:101300005B315D3A0000636E74725B305D3A00469B
:10131000696E616C20636E74722076616C756573A2
:101320003A0000000077793A0000636E74725B3116
:101330005D3A00005765696768745F793A00007725
:10134000783A0000636E74725B305D3A0000576556
:10135000696768745F783A000056657279206C6935
:1013600074746C6520736B65772064657465637451
:1013700065642E204F7274686F676F6E616C697A56
:10138000696E672074686520617865732E00004D72
:1013900061782E206572726F72206575636C696466
:1013A00069616E3A004D61782E206572726F72200D
:1013B000593A004D61782E206572726F7220583A4A
:1013C000004D61782E206572726F72733A000000D2
:1013D0002C206572726F7220593A20002C206572A1
:1013E000726F7220583A20006572726F723A200054
:1013F00029002C2000293B207461726765743A2013
:1014000028002C2000293B20636F7272656374658D
:10141000643A2028002C20006D6561737572656444
:101420003A202800002C206572726F72203E206DD9
:1014300061782E206572726F72206575636C6964C5
:1014400069616E00506F696E74206E6F74206F6EEC
:1014500020666972737420726F77003A00706F694A
:101460006E742023004572726F722061667465721B
:1014700020636F7272656374696F6E3A2000002C8E
:10148000200063656E746572206E65772C20696E2E
:101490007665727465643A2000002C20005920762D
:1014A0006563746F72206E65772C20696E76657245
:1014B0007465643A2000002C20005820766563741F
:1014C0006F72206E65772C20696E76657274656424
:1014D0003A2000002C2000636F7272656374696F9C
:1014E0006E20616E676C65733A2000002C200063EB
:1014F0006F7272656374656420616E676C65733AC0
:101500002000002C2000636F727265637465642094
:10151000782F793A2000002C20002C20002C20006D
:101520003B20636F7272656374696F6E20766563CA
:10153000746F723A2000697465726174696F6E3AF3
:10154000200000292C206572726F723A20002C2036
:1015500000293B207461726765743A2028002C20B2
:1015600000206D656173757265643A202800706FA4
:10157000696E74202300002C200063656E74657210
:101580002C20696E697469616C3A2000002C20007F
:101590005920766563746F722C20696E6974696175
:1015A0006C3A2000002C20005820766563746F721E
:1015B0002C20696E697469616C3A200063616C6308
:1015C000756C617465206D616368696E6520736B0D
:1015D000657720616E64206F6666736574204C5376
:1015E000004D6561737572652063656E7465722068
:1015F000200078797A63616C5F6D656173757265DF
:101600005F656E7465720A0078797A63616C5F73E6
:10161000706972616C382063783D25642063793D80
:101620002564207A303D256420647A3D256420724B
:1016300061646975733D25642061643D25640A0019
:1016400078797A63616C5F7365617263685A206E42
:101650006F207369676E616C0A20783D256C642089
:10166000793D256C64207A3D256C640A00204F4E3C
:101670002D5349474E414C20617420783D2564200C
:10168000793D2564207A3D25642061643D25640A06
:101690000078797A63616C5F7365617263685A2060
:1016A000783D256C6420793D256C64207A3D256C5D
:1016B000640A002530327800205B25662025665DAF
:1016C000206D6D207061747465726E2063656E7438
:1016D00065720A00205B25662025665D5B25665DD8
:1016E000206D6D20646976657267656E63650A00BA
:1016F0000000F000F801FC03FE07FE07FE07FE07EE
:10170000FC03F801F000000000000000F000F80108
:10171000FC03FC03FC03FC03F801F00000000000E4
:1017200078797A63616C5F6D6561737572655F6C02
:10173000656176650A00536176696E67206265644B
:101740002063616C6962726174696F6E2076656393
:10175000746F727320746F20454550524F4D005086
:10176000657270656E646963756C61726974790025
:101770005A65726F20706F696E7420636F72726544
:101780006374696F6E3A005920766563746F7220D6
:101790006C656E6774683A005820766563746F7282
:1017A000206C656E6774683A00203C2000574152F7
:1017B0004E494E473A2046726F6E7420706F696EC4
:1017C00074206E6F7420726561636861626C652E4F
:1017D000205920636F6F7264696E6174653A00000E
:1017E00070745B315D3A0070745B305D3A00004D9F
:1017F000656173757265643A000063757272656E37
:10180000745F706F736974696F6E5B5A5F4158499A
:10181000535D3A000063757272656E745F706F732A
:101820006974696F6E5B595F415849535D3A0000B6
:1018300063757272656E745F706F736974696F6ED1
:101840005B585F415849535D3A00417420592D342B
:101850000041742059300025642F340000636E74F9
:10186000725B315D3A0000636E74725B305D3A000A
:10187000007665635F795B315D3A00007665635F92
:10188000795B305D3A00007665635F785B315D3A85
:1018900000007665635F785B305D3A00566563747F
:1018A0006F72733A2000497465726174696F6E3AA1
:1018B000200043616C6962726174696F6E206661B9
:1018C000696C65642120436865636B2074686520DA
:1018D0006178657320616E642072756E2061676146
:1018E000696E2E0020453A00205A3A0020593A00ED
:1018F00020453A00205A3A0020593A00583A002030
:101900002D3E200053706F6F6C4A6F696E3A200055
:101910002C20006673656E736F722076302E342033
:10192000696E206661756C742072616E6765203423
:101930002E362D3556202D20756E636F6E6E6563C5
:10194000746564006673656E736F7220696E2066DD
:101950006F7262696464656E2072616E67652031C2
:101960002E352D3356202D20636865636B207365FB
:101970006E736F7200496E61637469766974792061
:1019800053687574646F776E004B494C4C45442E18
:10199000005072696E7465722068616C7465642EA3
:1019A000206B696C6C28292063616C6C6564210074
:1019B0005A206C6976652061646A757374206F754E
:1019C00074206F662072616E67652E205365747493
:1019D000696E6720746F20302E20436C69636B2022
:1019E000746F20636F6E74696E75652E005A206C7B
:1019F0006976652061646A757374206F7574206FF1
:101A0000662072616E67652E2053657474696E6717
:101A100020746F20300020453A3020423A00543A7A
:101A2000004731205A252D2E33662046252D2E3392
:101A30006600496E76616C6964205420636F64654A
:101A40002E004475706C696361746520542D636F5A
:101A500064652069676E6F7265642E00416476610B
:101A60006E6365204B3D004B206F7574206F6620C0
:101A7000616C6C6F7765642072616E676521004DE3
:101A80004B3353004D4B33534D4D5533005E762E43
:101A9000012533642F2533640025336400200A2098
:101AA0000A200A200025534172632053657474692B
:101AB0006E67733A20503A4D6178206C656E67749A
:101AC00068286D6D2920533A4D696E206C656E67EC
:101AD000746820286D6D29204E3A436F72726563D9
:101AE00074696F6E7320523A4D696E207365676D2D
:101AF000656E747320463A5365676D656E74732F17
:101B00007365632E0A255320204D32313420502531
:101B10002E32662053252E3266204E256420522513
:101B200064204625640A00255346696C616D656E24
:101B3000742073657474696E67733A2044697361C5
:101B4000626C65640A00255346696C616D656E744C
:101B50002073657474696E67733A0A2553202020D8
:101B60004D3230302044252E32660A00255352650E
:101B700074726163743A20533D4C656E67746820DB
:101B8000286D6D2920463A537065656420286D6D77
:101B90002F6D29205A3A205A4C69667420286D6DA1
:101BA000290A25532020204D3230372053252E324C
:101BB000662046252E3266205A252E32660A255387
:101BC0005265636F7665723A20533D457874726151
:101BD000206C656E67746820286D6D2920463A5325
:101BE0007065656420286D6D2F6D290A25532020AE
:101BF000204D3230382053252E32662046252E3295
:101C0000660A25534175746F2D5265747261637451
:101C10003A20533D3020746F2064697361626C65B3
:101C20002C203120746F20696E7465727072657437
:101C300020657874727564652D6F6E6C79206D6F98
:101C400076657320617320726574726163747320AA
:101C50006F72207265636F7665726965730A2553CA
:101C60002020204D323039205325640A002553505E
:101C700049442068656174626564207365747469A1
:101C80006E67733A0A25532020204D33303420509C
:101C9000252E32662049252E32662044252E3266B6
:101CA0000A0025535049442073657474696E677344
:101CB0003A0A25532020204D3330312050252E3232
:101CC000662049252E32662044252E32660A0025DC
:101CD0005353746570732070657220756E69743A21
:101CE0000A255320204D39322058252E326620599E
:101CF000252E3266205A252E32662045252E326644
:101D00000A25535553746570207265736F6C757432
:101D1000696F6E3A200A2553204D333530205825FF
:101D20006420592564205A2564204525640A2553DA
:101D30004D6178696D756D20666565647261746565
:101D400073202D206E6F726D616C20286D6D2F7366
:101D5000293A0A255320204D3230332058252E327F
:101D6000662059252E3266205A252E3266204525BA
:101D70002E32660A25534D6178696D756D20666552
:101D800065647261746573202D20737465616C7471
:101D90006820286D6D2F73293A0A255320204D3273
:101DA00030332058252E32662059252E3266205A8F
:101DB000252E32662045252E32660A25534D617840
:101DC000696D756D20616363656C65726174696FBF
:101DD0006E202D206E6F726D616C20286D6D2F73DB
:101DE00032293A0A255320204D3230312058256CB3
:101DF000752059256C75205A256C752045256C7504
:101E00000A25534D6178696D756D20616363656C5A
:101E100065726174696F6E202D20737465616C74D6
:101E20006820286D6D2F7332293A0A255320204DE2
:101E30003230312058256C752059256C75205A2573
:101E40006C752045256C750A2553416363656C6587
:101E5000726174696F6E3A20503D7072696E742CB5
:101E600020523D726574726163742C20543D74720B
:101E70006176656C0A255320204D32303420502580
:101E80002E32662052252E32662054252E32660AC6
:101E90002553416476616E63656420766172696181
:101EA000626C65733A20533D4D696E2066656564CA
:101EB0007261746520286D6D2F73292C20543D4D5F
:101EC000696E2074726176656C2066656564726106
:101ED000746520286D6D2F73292C20423D6D696E2D
:101EE000696D756D207365676D656E742074696DBD
:101EF0006520287573292C20583D6D6178696D75B2
:101F00006D205859206A65726B20286D6D2F7329DA
:101F10002C20205A3D6D6178696D756D205A206ABC
:101F200065726B20286D6D2F73292C2020453D6D27
:101F30006178696D756D2045206A65726B20286D2A
:101F40006D2F73290A255320204D3230352053251B
:101F50002E32662054252E32662042256C7520587C
:101F6000252E32662059252E3266205A252E3266BD
:101F70002045252E32660A2553486F6D65206F6611
:101F80006673657420286D6D293A0A255320204D0B
:101F90003230362058252E32662059252E326620C2
:101FA0005A252E32660A00544D3A20525B25755D43
:101FB00020657374696D6174652E00544D3A202557
:101FC0005320522025644300544D3A20255320438A
:101FD000206573742E00544D3A20636F6F6C20643B
:101FE0006F776E203C25644300726566696E6500FC
:101FF000696E697469616C00544D3A2063616C6963
:1020000062722E206661696C65642100544D3A202D
:1020100063616C6962726174696F6E20737461725E
:102020007400544D3A2043616C2E204E4F54204989
:10203000444C45004361703A25533A25630A0050E9
:10204000525553415F4D4D553200455854454E440D
:1020500045445F4D3230004155544F5245504F5228
:10206000545F504F534954494F4E004155544F52BD
:1020700045504F52545F46414E53004155544F52C4
:1020800045504F52545F54454D50000044656C65B7
:1020900074696F6E206661696C65642C2046696C9A
:1020A000653A200046696C652064656C65746564FA
:1020B0003A004E6F74205344207072696E74696EDA
:1020C00067005072696E74207361766564005344D2
:1020D000207072696E7420706175736564002533B9
:1020E000642F253364004F4B004241440052414D60
:1020F000426F2046414E200066760074687800509A
:10210000524E0043524153485F43414E43454C00B9
:1021100043524153485F5245434F56455200435244
:102120004153485F5245434F5645520022283229B9
:102130000025533A2025530A002C204D39303720F2
:10214000452069676E6F726564006E6F2076616C02
:10215000696420636F6D6D616E64007A65726F7281
:10216000697A656400666163746F72792072657361
:10217000746F72656400696E6465782C2074656D97
:10218000702C2075737465702C20756D0050494E4D
:1021900044412063616C207374617475733A20004C
:1021A000503A005761697420666F722050494E445E
:1021B00041207461726765742074656D7065726129
:1021C000747572653A0020410020500020420020C2
:1021D0004C00205200205A00204E4F5420494E49B6
:1021E0005449414C495A4544005368656574200080
:1021F000205A2056414C5545204F5554204F4620DB
:1022000052414E474500496E76616C69642073689F
:102210006565742049442E20416C6C6F7765643A83
:1022200020302E2E004155544F004C414E47205334
:10223000454C20464F524345440020643A002069F3
:102240003A0020703A0020643A0020693A00207079
:102250003A00256925250A00256925250A00222836
:102260003129002F2F000020455854525544455223
:102270005F434F554E543A3100204D414348494E3B
:10228000455F545950453A00312E30002062617349
:102290006564206F6E204D61726C696E20464952F4
:1022A0004D574152455F55524C3A68747470733AB9
:1022B0002F2F6769746875622E636F6D2F7072754A
:1022C000736133642F50727573612D4669726D7737
:1022D0006172652050524F544F434F4C5F564552E8
:1022E00053494F4E3A0030005F0038323337002BED
:1022F000004649524D574152455F4E414D453A5077
:10230000727573612D4669726D7761726520004D3B
:102310003131332053006F6B200020636D2E00207D
:102320006D696E2000535441545320006E2F61009C
:102330003F546F736869626120466C6173684169DC
:1023400072204765744950206661696C65640A00B3
:10235000000125311D0C4024301C0B45232F1B0A86
:1023600017FF0406222B1A03363735382569206DEE
:10237000696E2C2025692073656300496E76616C57
:102380006964204D20636F64653A2025730A00500C
:10239000494E44412070726F62652063616C6962CE
:1023A000726174696F6E207374617274004E6F2075
:1023B00050494E444120746865726D6973746F7240
:1023C00000736574006E6F7A7A6C65004D424C0044
:1023D0004652004C7A004C616E6700315F37356DB4
:1023E0006D5F4D4B33532D45494E53795F3130610D
:1023F0002D453344763666756C6C00526576003335
:102400002E31342E312D3832333700466972005365
:102410004E20696E76616C696400534E00524553DC
:102420004554004D4D555245530075766C6F00462E
:10243000414E0046414E50494E545354005052555F
:102440005341005345545F43484F505F0053455438
:102450005F535445505F005345545F574156455FA5
:1024600000544D435F0043524153485F43414E4344
:10247000454C0043524153485F5245434F564552E5
:102480000043524153485F4445544543544544003A
:1024900043524153485F00256C752062797465731F
:1024A000207772697474656E20746F2025532061E3
:1024B0007420616464726573732030782530346CE5
:1024C000780A00442564202D20526561642F5772DC
:1024D0006974652025530A004D65617375726564E2
:1024E00020736B6577733A2025662025660A0046BF
:1024F000697474696E67206661696C6564203D3E2D
:102500002063616C6962726174696F6E20666169D3
:102510006C65642E0A0043616C6962726174696F54
:102520006E20737563636573732E0A00416C6C20B3
:10253000342063616C6962726174696F6E20706FC0
:10254000696E747320666F756E642E0A00312F34C5
:1025500000312F3400312F390020436F756E742005
:10256000583A200045303A25642052504D205052B0
:102570004E313A25642052504D204530403A257561
:102580002050524E31403A25750A00526573656EEF
:10259000640025533A20256C640A25530A002F2F26
:1025A000616374696F6E3A6E6F74696669636174B2
:1025B000696F6E2025530A0046696C616D656E7403
:1025C0002072756E6F7574206465746563746564DC
:1025D00021005072696E7465722073746F7070653B
:1025E000642064756520746F206572726F72732E3B
:1025F000205375706572766973696F6E20726571AC
:1026000075697265642E0064756D7020636C656118
:102610007265640A006E6F2064756D70206176616A
:10262000696C61626C650A00443231202D2072654C
:1026300061642063726173682064756D700A006E56
:102640006F2064756D7020617661696C61626C6584
:102650000A0064756D7020636F6D706C65746564DD
:1026600020696E20256C756D730A0058464C4153E5
:102670004800454550524F4D005352414D00442DA6
:1026800031202D20456E646C657373206C6F6F7004
:102690000A004163746976652045787472756465D3
:1026A000723A203000496E76616C696420657874F6
:1026B000727564657200746D63323133305F7072AD
:1026C000696E745F63757272656E747328290A0986
:1026D0004809520A580925640925640A59092564DC
:1026E0000925640A5A0925640925640A45092564EF
:1026F0000925640A005344207072696E74696E671C
:1027000020627974652000257500746D6332313361
:10271000305F73675F7468725B25635D3D25640A93
:1027200000556E6B6E6F776E20636F6D6D616E64BA
:102730003A2022004D32303020496E76616C696457
:1027400020657874727564657220007A5F6D6178B7
:102750003A20007A5F6D696E3A2000795F6D61788A
:102760003A2000795F6D696E3A2000785F6D61787C
:102770003A2000545249474745524544006F70651E
:102780006E00785F6D696E3A20005265706F7274EA
:10279000696E6720656E6473746F70207374617402
:1027A0007573002F2F616374696F6E3A75766C6F65
:1027B0005F7265636F766572795F726561647900D7
:1027C0002F2F616374696F6E3A75766C6F5F6175F8
:1027D000746F5F7265636F766572795F726561644D
:1027E000790053494C454E54004E4F524D414C00D8
:1027F0002553204D4F44453A2050657263656E74F1
:1028000020646F6E653A20256868643B20707269A9
:102810006E742074696D652072656D61696E696E94
:102820006720696E206D696E733A2025643B2043F2
:1028300068616E676520696E206D696E733A202548
:10284000640A005072696E74657253746174653AFB
:102850002025640A00456E642066696C65206C69F9
:10286000737400426567696E2066696C65206C69E7
:10287000737400556E6B6E6F776E20256320636FE7
:1028800064653A2025730A000A50494E4441207479
:10289000656D70657261747572653A20252E3166BA
:1028A000205A20736869667420286D6D293A2025A6
:1028B0002E3366000A537465703A2025642F360A59
:1028C000000A537465703A2025642F362028736BF4
:1028D0006970706564290A50494E44412074656DE1
:1028E00070657261747572653A202564205A207390
:1028F0006869667420286D6D293A300A000A5A45C5
:10290000524F3A20252E33660A0073746172742088
:1029100074656D70657261747572653A20252E312B
:10292000660A0025642020252E3266002553205893
:102930003A20252E356620593A20252E3566205A14
:102940003A20252E35660A00536C6565702E2E2EB2
:102950000045303A25642052504D0A50524E303ACC
:1029600025642052504D0A004731205831302059FB
:10297000313830204634303030004731205A313041
:10298000204631333030004D313430205330004D4B
:1029900031303420533000473120452D302E303730
:1029A0003520463231303000473120463430303027
:1029B000004D323034205331303030004731205A0E
:1029C0003520463732303000473120452D312E3505
:1029D00020463231303000473930004731205835F9
:1029E000204534204631303030004731205A302ED7
:1029F00032204631303030004731205835352045BF
:102A0000323520463134303000473120592D3220C4
:102A10004631303030004731205832343020453292
:102A20003520204632323030004731205A302E33A4
:102A30002046313030300047312058353520453878
:102A40002046323030300047312058352045323969
:102A50002046313830300047312058353520453256
:102A6000392046313037330047393220453000476E
:102A70003238004D313039004D313930001000C945
:102A80000210012C014001220170011801B0010E59
:102A900001F00104015002FA00B002F0003003E638
:102AA00000D003DC009004D2007005C800A006BE70
:102AB000000008B400B009AA00D00BA000600E9678
:102AC0000060118C000015820020197800C01D6E76
:102AD00000A0226400B0275A00902C50000031461C
:102AE00000E0343C0010383200903A2800603C1E70
:102AF00000A03D1400803E0A00203F000050494ED7
:102B000044412063616C6962726174696F6E206612
:102B100061696C65642E20436F6E74696E75652003
:102B200077697468207072657373696E6720746862
:102B300065206B6E6F622E0050494E4441206361E8
:102B40006C6962726174696F6E20646F6E652E20AD
:102B5000436F6E74696E7565207769746820707252
:102B6000657373696E6720746865206B6E6F622E83
:102B700000473830004D3435004D3435205A004779
:102B80003736004D3730312050300057697A617246
:102B9000642073746174653A2025640A0045787076
:102BA0006572696D656E74616C004673656E736FF6
:102BB0007220446574656374696F6E00302E38301E
:102BC00000302E363000302E343000302E323500BA
:102BD00044697361626C65206661726D206D6F641B
:102BE00065005265736574204D4D55004D4D55007F
:102BF0004D3434004739390044697361626C652093
:102C00006661726D206D6F64653F004732382058F1
:102C100059004D20383400852E2E00593A20257554
:102C2000202D3E202E2E2E00583A202575202D3E98
:102C3000202E2E2E0046696C616D656E74207365C2
:102C40006E736F7220626F617264206368616E6779
:102C5000652064657465637465643A20726576699D
:102C600073696F6E25530A004D65617375726564F3
:102C70002066696C616D656E742073656E736F722A
:102C8000206C6F77206C6576656C3A2025342E3287
:102C900066560A004D656173757265642066696CDD
:102CA000616D656E742073656E736F7220686967FD
:102CB00068206C6576656C3A2025342E3266560A9B
:102CC000002533642F30002533642F3000000000CE
:102CD000C00000000000003C430000000000003C79
:102CE000439A992B43000000C09A992B43256320F7
:102CF00041584953205347313D25640A00486F74B9
:102D0000656E6400426564005A00590058002D2D1C
:102D10002D2D2D2D2D2D2D2D2D2D2D2D2D2D2D2DE3
:102D20002D2D00435A5058496E76616C6964536585
:102D30007269616C4E72004D393134004D39313554
:102D400000DD3197298F2987297A29682947312081
:102D5000582564205925642045252D2E35660047C9
:102D600031204631303830004731205A252D2E335E
:102D700066204637323030004731205835302059F0
:102D800031353500682AD7296633C829BC29B129CD
:102D9000A8294731205825642045252D2E3366204B
:102DA000463130303000572A472A372A292A682AE4
:102DB000162A092AF829EA29DB2954256400473113
:102DC000205A302E342046313030300047312059DF
:102DD0002D3320463130303000DD31782A732A6FB0
:102DE0002A682A4D3834205859004D313039205343
:102DF0003238300047312058313235205A323030A5
:102E0000204631303030004D3331302041204631C2
:102E100000473120583132352059313035205A3170
:102E200020463830303000496E76616C696420503D
:102E300049442063616C2E20726573756C74732E27
:102E4000204E6F742073746F72656420746F204518
:102E50004550524F4D2E004D3330312050252E32EB
:102E6000662049252E32662044252E3266004D33D9
:102E700030332045302053253375005243004445FC
:102E800056004245544100414C5048410000002149
:102E900000240027002A002D00300033000101002B
:102EA00000040107010A0100002200250028002B70
:102EB000002E003100340002010000050108010B62
:102EC00001000020002300260029002C002F0032E2
:102ED00000000100000301060109010505050507C1
:102EE0000508080808020202020A0A080804040485
:102EF00004010101010101010103030303030303B1
:102F000003040707070C0C0C0C0C0C0C0C0202023F
:102F10000206060606060606060B0B0B0B0B0B0B32
:102F20000B07070A0A0A0A0A0A0505050404040829
:102F300008010210202008081020401020408002C4
:102F400001020108040201010204081020408080EF
:102F50004020100804020180040201804020100873
:102F6000040201080402010102040810204080014B
:102F7000020408102040801008040880102040043B
:102F80004080102040048000000A0B02090C0D0E46
:102F9000080703040100000000000000000000001A
:102FA0000000000000000000000000000000000021
:102FB00000000012111000000000000000000000DE
:102FC0000000000000000000000000000000000001
:102FD00000000000000000000000000000332E315F
:102FE000342E31000A204F726967696E616C20507F
:102FF000727573612069330A2020205072757361E5
:103000002052657365617263680A2532302E323052
:103010005300435A5058003B530053706F6F6C4A33
:103020006F696E20697320006164635F696E697403
:1030300000200A200A200A2000416C6C20446174A0
:103040006100536572766963652070726570005324
:1030500068697070696E6720707265700053746182
:1030600074697374696373004C616E677561676539
:103070000045524153494E4720616C6C2064617495
:103080006100466163746F72792052455345540064
:1030900050525553413344465700494E543400036F
:1030A000000E000100400003000200000004004E7A
:1030B0004F4354554100414C5446414E00507275A7
:1030C00073613364004A616E203239203230323508
:1030D0002031333A31333A35370020332E31342E14
:1030E000312D383233375F3000737461727400539E
:1030F0004E20757064617465206661696C6564005A
:10310000534E207570646174656400435A505800D2
:1031100043524153485F44455445435445445859EC
:103120000043524153485F44455445435445445934
:103130000043524153485F44455445435445445825
:10314000004D323900252D392E39535B004731208F
:103150005825642059252D2E32662045252D2E33E5
:103160006600544D20657374696D6174696F6E20DB
:10317000646964206E6F7420636F6E766572676534
:1031800000544D20697465723A257520763A252ED3
:10319000326620653A252E33660A005772697469D3
:1031A0006E6720746F2066696C653A200046696C12
:1031B0006520616C7265616479206F70656E65640D
:1031C0000033332942000058419A998D41333353DB
:1031D00040200A200A20004D4D55323A004D313032
:1031E0003700202030002020310046494E44410065
:1031F00050494E44410057697A61726420656E649B
:103200002073746174653A2025640A0053706F6FEF
:103210006C4A6F696E004669726D7761726500482D
:10322000426564206F6E206C6F616400466C617350
:103230006841697200546865726D616C204D6F64FD
:10324000656C2063616C2E004572723A5052494E93
:10325000542046414E204552524F52004572723A18
:10326000484F54454E442046414E204552524F52FD
:10327000002F2F616374696F6E3A726573756D65A7
:1032800064002F2F616374696F6E3A726573756D98
:1032900065002F2F616374696F6E3A72656164799E
:1032A000002F2F616374696F6E3A6E6F745F726581
:1032B000616479002F2F616374696F6E3A63616E88
:1032C00063656C0041786973206C656E6774682073
:1032D000646966666572656E63653A252E33660AB3
:1032E000004D656173757265642061786973206C47
:1032F000656E6774683A252E33660A004F4B004CA2
:10330000434420737461747573206368616E6765EC
:103310006400534420636172642072656C6561735C
:1033200065640046616B652073657269616C206E2F
:10333000756D62657200452D636F6F6C206D6F64F3
:103340006500414C5446414E206465742E002F2F79
:10335000616374696F6E3A7374617274004D3834CE
:10336000004D373032004D38330047323820570097
:103370004D3530300045787465726E616C20535065
:103380004920666C6173680A58464C41534820696D
:1033900073206E6F74207265732D0A706F6E64698E
:1033A0006E672E204C616E67756167650A73776979
:1033B00074636820756E617661696C61626C652EFC
:1033C0000058464C415348206E6F742072657370EC
:1033D0006F6E64696E672E00465720637261736872
:1033E0002064657465637465642120596F7520637A
:1033F000616E20636F6E74696E7565207072696EA0
:1034000074696E672E20446562756720646174611B
:1034100020617661696C61626C6520666F72206103
:103420006E616C797369732E20436F6E746163747F
:1034300020737570706F727420746F207375626D75
:1034400069742064657461696C732E002F2F616349
:1034500074696F6E3A64756D705F617661696C61F5
:10346000626C6500437261736844657465637420BF
:1034700044495341424C454400437261736844657A
:103480007465637420454E41424C45442100486FA9
:1034900074656E642066616E20747970653A2000F0
:1034A0002020506C616E6E65724275666665724270
:1034B000797465733A20002046726565204D656D0C
:1034C0006F72793A2000207C20417574686F723ADF
:1034D0002000204C61737420557064617465643AF7
:1034E000200020536F6674776172652052657365A2
:1034F0007400205761746368646F67205265736558
:1035000074002042726F776E206F7574205265735D
:103510006574002045787465726E616C2052657325
:10352000657400506F7765725570006572726F72C6
:103530002077726974696E6720746F2066696C65A4
:1035400000446F6E6520736176696E672066696CF2
:10355000652E006F6B0046696C616D656E7400507E
:10356000494E44412063616C6962726174696F6E97
:10357000206661696C65640050494E444120636176
:103580006C6962726174696F6E2069732066696E1E
:10359000697368656420616E64206163746976652F
:1035A0002E2049742063616E206265206469736116
:1035B000626C656420696E206D656E75205365745C
:1035C00074696E67732D3E50494E44412063616CAF
:1035D0002E004578747275646572004D6F766520B3
:1035E0005A004D6F76652059004D6F766520580062
:1035F000437261736820646574656374696F6E20DB
:1036000063616E0A6265207475726E6564206F6E08
:10361000206F6E6C7920696E0A4E6F726D616C203E
:103620006D6F6465005741524E494E473A0A4372E6
:1036300061736820646574656374696F6E0A646998
:103640007361626C656420696E0A537465616C74A1
:1036500068206D6F6465004D6F6465206368616EFE
:10366000676520696E2070726F67726573732E2EA6
:103670002E00536865657420252E37730A5A206F13
:1036800066667365743A20252B312E33666D6D0A9C
:103690002563436F6E74696E75650A2563526573A1
:1036A000657400506C65617365206C6F61642066A1
:1036B000696C616D656E742066697273742E003E6C
:1036C00043616E63656C0052756E6E696E6720575C
:1036D000697A6172642077696C6C2064656C6574CA
:1036E000652063757272656E742063616C696272C5
:1036F0006174696F6E20726573756C747320616E8E
:10370000642073746172742066726F6D20746865D2
:1037100020626567696E6E696E672E20436F6E74F6
:10372000696E75653F0050726568656174696E67A2
:10373000206E6F7A7A6C652E20506C6561736520FF
:10374000776169742E00506C6561736520696E73D2
:103750006572742066696C616D656E7420696E7443
:103760006F207468652065787472756465722C20AA
:103770007468656E20707265737320746865206B61
:103780006E6F6220746F206C6F61642069742E000C
:10379000506C6561736520696E736572742066692B
:1037A0006C616D656E7420696E746F20746865203D
:1037B00066697273742074756265206F6620746820
:1037C00065204D4D552C207468656E2070726573B0
:1037D0007320746865206B6E6F6220746F206C6F4D
:1037E00061642069742E005A2063616C69627261A1
:1037F00074696F6E207265636F6D6D656E6465646C
:103800002E2052756E206974206E6F773F005468C9
:1038100065207072696E7465722077696C6C2073B4
:1038200074617274207072696E74696E67206120B1
:103830007A69672D7A6167206C696E652E20526FF8
:103840007461746520746865206B6E6F6220756E9C
:1038500074696C20796F7520726561636820746883
:1038600065206F7074696D616C2068656967687444
:103870002E20436865636B207468652070696374EB
:103880007572657320696E207468652068616E6466
:10389000626F6F6B202843616C6962726174696F3B
:1038A0006E2063686170746572292E0053656C65C3
:1038B00063742074656D70657261747572652077CC
:1038C00068696368206D61746368657320796F75DA
:1038D00072206D6174657269616C2E0053656C6550
:1038E000637420612066696C616D656E7420666F1B
:1038F0007220746865204669727374204C61796522
:10390000722043616C6962726174696F6E20616ECE
:10391000642073656C65637420697420696E20741B
:103920006865206F6E2D73637265656E206D656EC0
:10393000752E004E6F7720492077696C6C2063618B
:103940006C6962726174652064697374616E636529
:10395000206265747765656E20746970206F6620DB
:10396000746865206E6F7A7A6C6520616E64206879
:1039700065617462656420737572666163652E00AB
:10398000506C6561736520636865636B206F757249
:103990002068616E64626F6F6B20616E642066697F
:1039A00078207468652070726F626C656D2E20548B
:1039B00068656E20726573756D6520746865205743
:1039C000697A617264206279207265626F6F7469CE
:1039D0006E6720746865207072696E7465722E005F
:1039E000416C6C20697320646F6E652E2048617095
:1039F0007079207072696E74696E672100596F75F5
:103A00002063616E20616C776179732072657375D4
:103A10006D65207468652057697A617264206672EA
:103A20006F6D2043616C6962726174696F6E202DE5
:103A30003E2057697A6172642E00496620796F755D
:103A40002068617665206164646974696F6E616C79
:103A500020737465656C207368656574732C2063CE
:103A6000616C696272617465207468656972207046
:103A700072657365747320696E2053657474696E22
:103A80006773202D204857205365747570202D20B2
:103A9000537465656C207368656574732E00506C93
:103AA0006561736520636C65616E20686561746231
:103AB000656420616E64207468656E207072657341
:103AC0007320746865206B6E6F622E00446F2079DE
:103AD0006F752077616E7420746F207265706561F8
:103AE00074206C617374207374657020746F20721D
:103AF0006561646A7573742064697374616E63656B
:103B0000206265747765656E206E6F7A7A6C6520C9
:103B1000616E6420686561746265643F0053656C22
:103B2000656374206E6F7A7A6C6520707265686563
:103B300061742074656D706572617475726520774B
:103B400068696368206D61746368657320796F7557
:103B500072206D6174657269616C2E004973206614
:103B6000696C616D656E74206C6F616465643F00A3
:103B7000546865726D616C206D6F64656C20636163
:103B80006C2E2074616B657320617070726F782E7B
:103B9000203132206D696E732E205365650A707274
:103BA0007573612E696F2F746D2D63616C004E6F9C
:103BB0007720492077696C6C207072656865617444
:103BC000206E6F7A7A6C6520666F7220504C412EA1
:103BD00000492077696C6C2072756E207A206361D1
:103BE0006C6962726174696F6E206E6F772E004E21
:103BF0006F772072656D6F766520746865207465D7
:103C00007374207072696E742066726F6D207374A5
:103C100065656C2073686565742E00506C65617312
:103C2000652072656D6F7665207368697070696E66
:103C3000672068656C706572732066697273742E94
:103C400000492077696C6C2072756E2078797A2033
:103C500063616C6962726174696F6E206E6F772E3A
:103C60002049742077696C6C2074616B65207570D5
:103C700020746F203234206D696E732E0046697295
:103C800073742C20492077696C6C2072756E2074D7
:103C900068652073656C667465737420746F206347
:103CA0006865636B206D6F737420636F6D6D6F6EED
:103CB00020617373656D626C792070726F626C65E0
:103CC0006D732E0048692C204920616D20796F7535
:103CD00072204F726967696E616C205072757361F2
:103CE000206933207072696E7465722E20576F756B
:103CF0006C6420796F75206C696B65206D6520742C
:103D00006F20677569646520796F75207468726FBC
:103D100075676820746865207365747570207072AB
:103D20006F636573733F0048692C204920616D20E3
:103D3000796F7572204F726967696E616C2050727D
:103D4000757361206933207072696E7465722E20FC
:103D5000492077696C6C20677569646520796F7597
:103D6000207468726F75676820612073686F727461
:103D70002073657475702070726F636573732C2087
:103D8000696E20776869636820746865205A2D61C0
:103D90007869732077696C6C2062652063616C6957
:103DA0006272617465642E205468656E2C20796F90
:103DB000752077696C6C206265207265616479207A
:103DC000746F207072696E742E00452D636F72726D
:103DD000656374005A2D636F727265637400592DA8
:103DE000636F727265637400582D636F72726563DE
:103DF0007400506175736500436F6E742E004653F6
:103E000020416374696F6E00462E206175746F6C7B
:103E10006F616400462E2072756E6F7574004D4D93
:103E200055204D6F6465004375747465720046617A
:103E30006E207370656564004265640046616E7350
:103E400020636865636B004D6F64656C004E6F7A2C
:103E50007A6C6500436865636B73004E6F7A7A6CA9
:103E60006520642E00416C7068616265740054695D
:103E70006D6500536F727400534420636172640077
:103E800052506920706F7274004C696E2E20636FFF
:103E90007272656374696F6E004E6F7A7A6C65201A
:103EA0006368616E676500485720536574757000DC
:103EB0004C6F6164696E6720546573740044697364
:103EC00061626C65207374657070657273004D6F0C
:103ED000766520617869730054656D7065726174F0
:103EE0007572650050494E44412063616C2E00524A
:103EF000657365742058595A2063616C6962722E2B
:103F0000005049442063616C6962726174696F6E2C
:103F100000426564206C6576656C20636F72726523
:103F20006374004D65736820426564204C65766556
:103F30006C696E670043616C696272617465205AD6
:103F40000043616C6962726174652058595A00536C
:103F5000656C66746573740042656C742074657377
:103F6000740057697A617264004C6F616420416C1F
:103F70006C00506C656173652070756C6C206F759A
:103F8000742066696C616D656E7420696D6D656421
:103F9000696174656C790052657365740052656E71
:103FA000616D65004669727374206C617965722079
:103FB00063616C2E0053656C6563740053746565B2
:103FC0006C2073686565747300537570706F7274DC
:103FD000004661696C207374617473204D4D550007
:103FE0004661696C20737461747300537461746901
:103FF00073746963730043616C6962726174696FA1
:104000006E004175746F4C6F61642066696C616D00
:10401000656E74004C6F61642066696C616D656EDD
:104020007400556E6C6F61642066696C616D656EBD
:1040300074004C6F616420746F206E6F7A7A6C65C7
:10404000005072656C6F616420746F204D4D550097
:104050004E6F2053442063617264005072696E7425
:104060002066726F6D20534400436C65617220546A
:104070004D206572726F7200526573756D652070A8
:1040800072696E74005061757365207072696E7428
:104090000053657420526561647900536574206E25
:1040A0006F7420526561647900507265686561744F
:1040B0000054756E65004C6976652061646A75739D
:1040C00074205A0052657072696E7400496E666F92
:1040D0002073637265656E004272696768746E650D
:1040E0007373004173736973740053696C656E7404
:1040F000004F6E6365004C6F756400536F756E649E
:104100000046696C2E2073656E736F720041757482
:104110006F20686F6D65004368616E676520666932
:104120006C616D656E7400466C6F770053706565E9
:1041300064004E2F41004D61676E65747320636F9C
:104140006D702E005A2D70726F6265206E722E0097
:104150004D6573680044696D004272696768740058
:104160004175746F0054696D656F7574004C6576A8
:10417000656C2044696D6D6564004C6576656C20E6
:104180004272696768740053657474696E6773007E
:1041900053746F70207072696E7400436865636B4E
:1041A000696E672066696C650046696C6520696E9A
:1041B000636F6D706C6574652E20436F6E74696EED
:1041C000756520616E797761793F0084526566720A
:1041D000657368004D61696E00496E736572742085
:1041E0007468652066696C616D656E742028646F03
:1041F000206E6F74206C6F61642069742920696E71
:10420000746F2074686520657874727564657220B7
:10421000616E64207468656E2070726573732074BB
:104220006865206B6E6F622E0053656E736F72202F
:1042300076657269666965642C2072656D6F766556
:10424000207468652066696C616D656E74206E6FA0
:10425000772E00566572696669636174696F6E20B6
:104260006661696C65642C2072656D6F766520747B
:1042700068652066696C616D656E7420616E64208E
:1042800074727920616761696E2E00506C6561738C
:104290006520636865636B207468652049522073EC
:1042A000656E736F7220636F6E6E656374696F6E97
:1042B0002C20756E6C6F61642066696C616D656E33
:1042C000742069662070726573656E742E00506C80
:1042D0006561736520756E6C6F616420746865201C
:1042E00066696C616D656E742066697273742C20EA
:1042F0007468656E20726570656174207468697396
:1043000020616374696F6E2E0057616974696E670E
:1043100020666F72206E6F7A7A6C6520616E642001
:1043200062656420636F6F6C696E670053656C66CD
:1043300074657374204F4B0053656C6674657374B9
:10434000207374617274005072696E742066616EBD
:104350003A00486F74656E642066616E3A0043618E
:104360006C6962726174696E6720686F6D65004187
:104370006C6C20636F727265637400436865636B75
:10438000696E672073656E736F727300436865634F
:104390006B696E6720686F74656E6400436865635F
:1043A0006B696E672062656400436865636B696E64
:1043B00067205A206178697300436865636B696E92
:1043C000672059206178697300436865636B696E83
:1043D000672058206178697300436865636B696E74
:1043E0006720656E6473746F70730043617264203C
:1043F00072656D6F766564004261636B005374652E
:10440000616C7468004372617368206465742E0087
:104410004E6F726D616C004D6F646500537472690C
:104420006374005761726E004E6F6E6500486F7462
:10443000656E64206174203238304321204E6F7ADB
:104440007A6C65206368616E67656420616E6420C4
:104450007469676874656E656420746F2073706535
:1044600063733F00466F722061204E6F7A7A6C65ED
:10447000206368616E676520706C6561736520728A
:104480006561640A70727573612E696F2F6E6F7A41
:104490007A6C652D6D6B3373005049442063616CF9
:1044A0002E2066696E697368656400504944206314
:1044B000616C2E005072696E742070617573656452
:1044C000005072696E742061626F72746564004E90
:1044D0006F7A7A6C65206469616D657465722064B9
:1044E0006966666572732066726F6D2074686520F8
:1044F000472D636F64652E20506C65617365206382
:104500006865636B207468652076616C75652069E9
:104510006E2073657474696E67732E205072696EB5
:10452000742063616E63656C6C65642E004E6F7AF7
:104530007A6C65206469616D657465722064696672
:10454000666572732066726F6D2074686520472DF2
:10455000636F64652E20436F6E74696E75653F00EE
:104560005468657265206973206E6F2066696C619E
:104570006D656E74206C6F616465642E2050726985
:104580006E742063616E63656C6C65642E005468A4
:10459000657265206973206E6F2066696C616D6558
:1045A0006E74206C6F616465642E20436F6E746955
:1045B0006E75653F004D4B3353206669726D7761B0
:1045C0007265206465746563746564206F6E204D48
:1045D0004B33207072696E74657200426C61636B5C
:1045E0006F7574206F636375727265642E205265F7
:1045F000636F766572207072696E743F00546865EF
:10460000726D616C206D6F64656C206E6F742063D9
:10461000616C69627261746564207965742E00440E
:10462000697374616E6365206265747765656E2079
:10463000746970206F6620746865206E6F7A7A6C7A
:104640006520616E642074686520626564207375FE
:10465000726661636520686173206E6F74206265A5
:10466000656E20736574207965742E20506C6561C9
:10467000736520666F6C6C6F7720746865206D6160
:104680006E75616C2C206368617074657220466978
:104690007273742073746570732C2073656374690E
:1046A0006F6E204669727374206C61796572206345
:1046B000616C6962726174696F6E2E005072696E0E
:1046C00074657220686173206E6F74206265656E18
:1046D0002063616C69627261746564207965742E0F
:1046E00020506C6561736520666F6C6C6F77207409
:1046F0006865206D616E75616C2C206368617074F3
:1047000065722046697273742073746570732C200F
:1047100073656374696F6E2043616C696272617462
:10472000696F6E20666C6F772E0053656C667465DA
:1047300073742077696C6C2062652072756E2074CA
:104740006F2063616C696272617465206163637577
:10475000726174652073656E736F726C657373201C
:104760007265686F6D696E672E004F6C64207365AB
:104770007474696E677320666F756E642E2044656D
:104780006661756C74205049442C204573746570C3
:1047900073206574632E2077696C6C2062652073CA
:1047A00065742E005761726E696E673A20626F748D
:1047B00068207072696E746572207479706520610A
:1047C0006E64206D6F74686572626F6172642074CC
:1047D000797065206368616E6765642E0057617249
:1047E0006E696E673A207072696E746572207479B2
:1047F0007065206368616E6765642E005761726E34
:10480000696E673A206D6F74686572626F61726479
:104810002074797065206368616E6765642E00544A
:10482000657374696E672066696C616D656E74008E
:104830005368656574004E6F74207370696E6E699D
:104840006E67005370696E6E696E670046616E2018
:10485000746573740053656C667465737420666167
:10486000696C6564002573206C6576656C206578DD
:104870007065637465640046616C73652074726969
:1048800067676572696E670046696C616D656E7415
:104890002073656E736F720053776170706564008A
:1048A00046726F6E742F6C6566742066616E73005D
:1048B000417869730041786973206C656E6774682C
:1048C000004C6F6F73652070756C6C6579004C657A
:1048D000667420686F74656E642066616E3F004682
:1048E000726F6E74207072696E742066616E3F0024
:1048F000456E6473746F70206E6F74206869740005
:10490000456E6473746F70004D6F746F7200456E06
:104910006473746F707300576972696E6720657293
:10492000726F72004265642F486561746572004E53
:104930006F7420636F6E6E656374656400486561B3
:104940007465722F546865726D6973746F7200506C
:104950006C6561736520636865636B3A0053656CD1
:104960006674657374206572726F72210053656C92
:104970006563742066696C616D656E743A00556E8E
:104980006578706563746564206572726F72206FFC
:10499000636375727265642E004D3630302046694F
:1049A0006C616D656E74204368616E67652E204C86
:1049B0006F61642061206E65772066696C616D654A
:1049C0006E74206F7220656A656374207468652058
:1049D0006F6C64206F6E652E0052656D6F7665207A
:1049E00074686520656A65637465642066696C61D6
:1049F0006D656E742066726F6D20746865206672D6
:104A00006F6E74206F6620746865204D4D552E00C2
:104A100046696C616D656E74206465746563746568
:104A20006420756E65787065637465646C792E209A
:104A3000456E73757265206E6F2066696C616D6579
:104A40006E74206973206C6F616465642E20436806
:104A500065636B207468652073656E736F72732075
:104A6000616E6420776972696E672E00496E7465A5
:104A7000726E616C2072756E74696D6520657272FC
:104A80006F722E2054727920726573657474696E2A
:104A90006720746865204D4D55206F7220757064D5
:104AA0006174696E6720746865206669726D7761EC
:104AB00072652E004D4D55204657207665727369FC
:104AC0006F6E20697320696E636F6D7061746962C7
:104AD0006C652077697468207072696E74657220E5
:104AE00046572E55706461746520746F2076657228
:104AF00073696F6E20332E302E332E004D4D5520AE
:104B00004669726D7761726520696E7465726E6157
:104B10006C206572726F722C20706C6561736520F9
:104B2000726573657420746865204D4D552E005272
:104B300065717565737465642066696C616D656E19
:104B40007420746F6F6C206973206E6F74206176AF
:104B500061696C61626C65206F6E20746869732096
:104B600068617264776172652E20436865636B20AB
:104B700074686520472D636F646520666F722074CA
:104B80006F6F6C20696E646578206F7574206F6636
:104B90002072616E6765202854302D5434292E0010
:104BA00043616E6E6F7420706572666F726D2074F3
:104BB000686520616374696F6E2C2066696C616D35
:104BC000656E7420697320616C7265616479206C14
:104BD0006F616465642E20556E6C6F61642069742A
:104BE0002066697273742E004D4D55206E6F7420CF
:104BF000726573706F6E64696E6720636F72726541
:104C000063746C792E20436865636B20746865203B
:104C1000776972696E6720616E6420636F6E6E657E
:104C200063746F72732E004D4D55206E6F74207239
:104C30006573706F6E64696E672E20436865636B81
:104C40002074686520776972696E6720616E6420E0
:104C5000636F6E6E6563746F72732E004D6F726555
:104C60002064657461696C73206F6E6C696E652E6B
:104C7000005468652049646C65722063616E6E6FD4
:104C80007420686F6D652070726F7065726C792E1C
:104C900020436865636B20666F7220616E7974686B
:104CA000696E6720626C6F636B696E6720697473ED
:104CB000206D6F76656D656E742E0043616E27748E
:104CC000206D6F76652053656C6563746F72206F1D
:104CD000722049646C65722E005468652053656CBF
:104CE0006563746F722063616E6E6F7420686F6DA0
:104CF000652070726F7065726C792E2043686563F1
:104D00006B20666F7220616E797468696E672062CD
:104D10006C6F636B696E6720697473206D6F766565
:104D20006D656E742E004C6F6164696E6720746FE0
:104D3000206578747275646572206661696C65645B
:104D40002E20496E737065637420746865206669EF
:104D50006C616D656E742074697020736861706534
:104D60002E20526566696E65207468652073656ED5
:104D7000736F722063616C6962726174696F6E2C0B
:104D8000206966206E65656465642E0053656C65F8
:104D900063746F722063616E2774206D6F76652077
:104DA00064756520746F2046494E444120646574E3
:104DB000656374696E6720612066696C616D656EFC
:104DC000742E204D616B652073757265206E6F20A7
:104DD00066696C616D656E7420697320696E20531D
:104DE000656C6563746F7220616E642046494E4441
:104DF0004120776F726B732070726F7065726C797F
:104E00002E0046696C616D656E742073656E736FFC
:104E1000722074726967676572656420746F6F20B1
:104E20006561726C79207768696C65206C6F61646C
:104E3000696E6720746F2065787472756465722E70
:104E400020436865636B2074686572652069736EC2
:104E5000277420616E797468696E67207374756356
:104E60006B20696E205054464520747562652E2073
:104E7000436865636B20746861742073656E736F3B
:104E8000722072656164732070726F7065726C79E4
:104E90002E0050756C6C6579206D6F746F72207385
:104EA00074616C6C65642E20456E73757265207438
:104EB00068652070756C6C65792063616E206D6F1C
:104EC000766520616E6420636865636B2074686535
:104ED00020776972696E672E0046696C616D656E38
:104EE000742073656E736F72206469646E2774201A
:104EF000737769746368206F6666207768696C658C
:104F000020756E6C6F6164696E672066696C616D97
:104F1000656E742E20456E737572652066696C61CE
:104F20006D656E742063616E206D6F766520616EB5
:104F300064207468652073656E736F7220776F727A
:104F40006B732E0046696C616D656E742073656EBF
:104F5000736F72206469646E277420747269676766
:104F60006572207768696C65206C6F6164696E6733
:104F7000207468652066696C616D656E742E2045CD
:104F80006E73757265207468652073656E736F72D9
:104F90002069732063616C69627261746564206169
:104FA0006E64207468652066696C616D656E74203E
:104FB000726561636865642069742E0046494E44D9
:104FC00041206469646E2774207377697463682074
:104FD0006F6666207768696C6520756E6C6F6164BA
:104FE000696E672066696C616D656E742E205472FF
:104FF0007920756E6C6F6164696E67206D616E7586
:10500000616C6C792E20456E737572652066696CD3
:10501000616D656E742063616E206D6F76652061D1
:105020006E642046494E444120776F726B732E00A8
:1050300046494E4441206469646E27742074726945
:1050400067676572207768696C65206C6F61646959
:105050006E67207468652066696C616D656E742E7C
:1050600020456E73757265207468652066696C6191
:105070006D656E742063616E206D6F766520616E64
:10508000642046494E444120776F726B732E004472
:10509000697361626C650053746F70004C6F61647A
:1050A00000556E6C6F61640052657365744D4D55AB
:1050B0000052657472790053656E7369746976691C
:1050C000747900446F6E65005265636F766572692E
:1050D0006E67207072696E7400544845524D414CA1
:1050E00020414E4F4D414C5900526573756D696EAC
:1050F00067207072696E740050494E4441204865C3
:105100006174696E670043616C6962726174696F92
:105110006E20646F6E650043616C696272617469D0
:105120006E67205A0042656420646F6E65004265B8
:10513000642048656174696E670048656174696ED2
:105140006720646F6E652E0048656174696E670044
:105150004D4D5520706F776572206661696C7300E4
:105160004D4D55206C6F6164206661696C73004D14
:105170004D55206661696C73004D6174657269619B
:105180006C206368616E67657300546F74616C2096
:105190006661696C7572657300437261736800467D
:1051A000696C2E2072756E6F75747300506F776521
:1051B00072206661696C75726573004C617374204E
:1051C0007072696E74206661696C757265730054E3
:1051D0006F74616C004C617374207072696E74003E
:1051E000416D6269656E7400566F6C7461676573BA
:1051F0000054656D70657261747572657300426507
:105200006C74207374617475730053656E736F7280
:1052100020696E666F0045787472756465722069E6
:105220006E666F0058595A2063616C2E2064657455
:1052300061696C73005072696E7465722049502008
:10524000416464723A00756E6B6E6F776E004D4DFF
:105250005520636F6E6E65637465640044617465A8
:105260003A00746F20756E6C6F61642066696C61C2
:105270006D656E7400746F206C6F61642066696C7C
:10528000616D656E7400507265737320746865207B
:105290006B6E6F620050726568656174696E67203D
:1052A000746F206375740050726568656174696E0F
:1052B0006720746F20656A65637400507265686565
:1052C0006174696E6720746F20756E6C6F61640025
:1052D00050726568656174696E6720746F206C6FC9
:1052E000616400436F6F6C646F776E00456A65633D
:1052F000740046696C616D656E74206578747275B2
:1053000064696E672026207769746820636F727203
:1053100065637420636F6C6F723F004175746F6CCE
:105320006F6164696E672066696C616D656E74207B
:105330006973206163746976652C206A75737420C3
:10534000707265737320746865206B6E6F62206184
:105350006E6420696E736572742066696C616D6538
:105360006E742E2E2E005072696E742074696D65F5
:105370000046696C616D656E7420757365640054D8
:105380006F74616C207072696E742074696D650051
:10539000546F74616C2066696C616D656E74005049
:1053A00072656865617420746865206E6F7A7A6CC6
:1053B0006521004552524F523A00526967687400A5
:1053C0004C65667400592064697374616E6365206E
:1053D00066726F6D206D696E00536576657265202B
:1053E000736B657700536C6967687420736B6577BE
:1053F000004D6561737572656420736B6577005B42
:10540000303B305D20706F696E74206F6666736527
:10541000740041646A757374696E67205A0052653E
:1054200061722073696465205BE46D5D0046726F94
:105430006E7420736964655BE46D5D005269676832
:105440007420736964655BE46D5D004C656674206F
:1054500073696465205BE46D5D0053657420746559
:105460006D70657261747572653A004D494E5445B0
:105470004D5020424544206669786564004D494E90
:1054800054454D5020484F54454E44206669786538
:1054900064004D4D55323A0025336400180104195B
:1054A000020A3050BC4F444FD94E924E024E8C4DA2
:1054B000264DD94CBB4C714CBB4C5C4C5C4C5C4C91
:1054C0005C4C5C4C5C4C5C4C5C4C5C4C5C4C5C4C9C
:1054D0005C4C5C4C5C4C5C4C5C4C5C4C5C4C5C4C8C
:1054E0005C4C5C4C5C4C274CE84BA04B2F4BFC4A73
:1054F000B44A6C4A104AD94999497E4901010101CF
:10550000010101027101710132323203030303030D
:10551000030303030303030303030303030393933B
:105520002438039303010256036500660067006890
:105530000069006A006B006C00730074007D007EDF
:1055400000C900D300DD00CA00D400DE002D013701
:105550000141012E01380142012F0139014301307F
:10556000013A01440131013B0145013201910192AF
:1055700001F501F601F701F801F901FA01FB01FC5F
:10558000018403B150C350A850A1509C50EC52B1BB
:105590004097508F50252E3230530A7072757361C8
:1055A0002E696F2F30342568750020557067726141
:1055B00064696E672078666C6173680A20446F20A6
:1055C0006E6F7420646973636F6E6E65637421001F
:1055D000773235783230636C5F63666D0A007732FC
:1055E00035783230636C5F656E7465720A0073746F
:1055F0006172740A007265636F7665725F6D6163D4
:1056000068696E655F73746174655F616674657205
:105610005F706F7765725F70616E69632C20696E71
:10562000697469616C200050525553412075766C45
:105630006F004734205330004D313130204E256CFF
:1056400075004D32362053256C75004D31303620B3
:1056500053257500473120462564004D38320047F8
:1056600039322045252D2E3366004D3230342050FE
:10567000252D2E31662052252D2E31662054252DC4
:105680002E3166004731205A252D2E3366005052A8
:10569000555341204D424C2056310047312058256A
:1056A0002D2E33662059252D2E336620463330307B
:1056B00030002C20666565646D756C7469706C795A
:1056C0003A0046656564726174653A004731204569
:1056D000352046313230004D3130392053256400B9
:1056E0004D31343020532564004D31303420532562
:1056F000640047323820582059004731205A252E5F
:10570000336620463830300024F4D43050C38E2025
:10571000C2A24017828B7011127A910D816CD90A46
:10572000A861E108C7586607615143061E4B5D0535
:10573000C145A7041A411104093D98037139310389
:105740004036DB0265339102D4305402802E1D02B4
:10575000632CEE01752AC501B028A0011027810134
:105760008F2564012B244B01E0223401AC211F0161
:105770008D200D01801FFC00841EED00971DDF00B1
:10578000B81CD200E61BC600201BBC00641AB20085
:10579000B219A8000A19A0006A189900D11791003F
:1057A00040178B00B516840031167E00B3157900C2
:1057B0003A157300C7146F0058146A00EE136600A0
:1057C0008813630025135E00C7125B006C1257003C
:1057D00015125400C111510070114F0021114B00DE
:1057E000D61049008D1047004610440002104200B8
:1057F000C00F4000800F3E00420F3C00060F3B00F0
:10580000CB0E3800930E37005C0E3500270E3400A7
:10581000F30D3200C10D3100900D3000600D2E00EF
:10582000320D2D00050D2C00D90C2B00AE0C2900DB
:10583000850C29005C0C2700350C27000E0C260077
:10584000E80B2400C40B2400A00B23007D0B2300D5
:105850005A0B2100390B2100180B2000F80A1F00F9
:10586000D90A1E00BB0A1E009D0A1D00800A1D00E9
:10587000630A1C00470A1B002C0A1B00110A1A00AD
:10588000F7091A00DD091900C4091900AB0919004C
:10589000920917007B091800630917004C091600CC
:1058A00036091600200916000A091500F50815002A
:1058B000E0081400CC081400B8081400A408140070
:1058C000900813007D0812006B081300580812009E
:1058D00046081200340811002308110012081100B4
:1058E00001081100F0071000E0071000D0071000B9
:1058F000C0071000B0070F00A107100091070E00AD
:1059000083070F0074070F0065070E0057070E008E
:1059100049070E003B070D002E070E0020070D0063
:1059200013070D0006070D00F9060C00ED060D002B
:10593000E0060C00D4060C00C8060C00BC060C00E7
:10594000B0060C00A4060B0099060C008D060B0097
:1059500082060B0077060B006C060B0061060A003E
:1059600057060B004C060A0042060A0038060A00D9
:105970002E060A0024060A001A060A00100609006C
:1059800007060A00FD050900F4050900EB050900FA
:10599000E2050900D9050900D0050900C70509007D
:1059A000BE050900B5050800AD050800A5050900FC
:1059B0009C050800940508008C0508008405080073
:1059C0007C050800740508006C05070065050800E3
:1059D0005D050700560508004E050700470507004E
:1059E0004005080038050700310507002A050700B3
:1059F000230507001C050600160507000F05070014
:105A00000805060002050700FB040600F504070070
:105A1000EE040600E8040600E2040700DB040600CA
:105A2000D5040600CF040600C9040600C30406001E
:105A3000BD040600B7040600B1040500AC0406006E
:105A4000A6040600A00405009B04060095040500BA
:105A5000900406008A040500850405008004060001
:105A60007A04050075040500700405006B04050048
:105A700066040500610405005C0405005704050088
:105A8000520405004D0405004804050043040500C8
:105A90003E0404003A040500350405003004040007
:105AA0002C04050027040400230405001E04040040
:105AB0001A04040016040500110404000D04040077
:105AC000090405000404040000040400FC030400AD
:105AD000F8030400F4030400F0030400EC030400E2
